:100000000C945D000C9485000C9485000C94850084
:100010000C9485000C9485000C9485000C9485004C
:100020000C9428040C9485000C9485000C94850095
:100030000C9485000C9485000C9485000C9485002C
:100040000C9486030C9485000C94F6030C94D00356
:100050000C9485000C9485000C9485000C9485000C
:100060000C9485000C9485000000000025002800F9
:100070002B0000000008000201000003040700003C
:1000800000000000000000000000230026002900FE
:10009000040404040404040402020202020203032E
:1000A0000303030301020408102040800102040836
:1000B0001020010204081020DB0411241FBECFEF22
:1000C000D8E0DEBFCDBF23E0A8EDB1E001C01D92B6
:1000D000A83CB207E1F711E0A0E0B1E0E8E8F4E104
:1000E00002C005900D92A83DB107D9F710E0CDE50B
:1000F000D0E004C02197FE010E943C0ACC35D10714
:10010000C9F70E941D050C94420A0C940000A5E951
:10011000B2E011968C93119790E0FC01EC55FF4FE3
:10012000E4911496EC931497FC01E057FF4FE4918F
:10013000F0E0EE0FFF1FEA57FF4F85919491139661
:100140009C938E93129708950F931F93CF93DF93F1
:10015000E0919503F09196034091F701808510E0BE
:10016000481708F064C0142F11700091F6010111B6
:100170004FC0842F90E0880F991FE80FF91F01846A
:10018000F285E02D2CEE3FEF112311F024E130E059
:10019000C091F401D091F5012C0F3D1FC90163E41A
:1001A00070E00E94280AE617F70760F0C90168E2CC
:1001B00070E00E94280A6F5F7F4F81E090E06E1729
:1001C0007F0710F52C0F3D1FC90163E470E00E940A
:1001D000280AE617F70750F0C90168E270E00E94AC
:1001E000280A6F5F7F4F6E177F0760F42C0F3D1F4B
:1001F000C90163E470E00E94280AE617F707E8F4F3
:100200001FEF15C082E090E09093F3018093F2011C
:100210000F5F0093F6018091F2019091F3010817AE
:10022000190628F01092F6014F5F4093F701812FD5
:10023000DF91CF911F910F910895C90168E270E09D
:100240000E94280A6F5F7F4F6E177F07C8F283E016
:1002500090E0DACF6F927F928F929F92AF92BF928F
:10026000CF92DF92EF92FF921F93CF93DF93182FDD
:10027000EA01E0919503F09196033F964B0184E1EA
:10028000880E911C93E4C92ED12CC401B6010E94A2
:10029000280A5B0148E2E42EF12CC401B7010E9458
:1002A000280A3B018FEF681A780A6497CE01B601DD
:1002B0000E94280A4B01CE01B7010E94280AEB01D7
:1002C000219624513109C901B6010E94280A6B0107
:1002D000C901B7010E94280A6F5F7F4F20E030E01C
:1002E000A901808191818A159B0568F168167906BC
:1002F00050F1220F331F441F551F828193818815AF
:100300009905F0F0C817D90700F121603496115013
:1003100041F72093890330938A0340938B035093D2
:100320008C0381E0DF91CF911F91FF90EF90DF90E0
:10033000CF90BF90AF909F908F907F906F900895D7
:100340008C159D0510F480E0EDCF68177907D8F380
:10035000DDCF90E0FC01EE58FF4F2491FC01EC55FD
:10036000FF4F3491FC01E057FF4FE491EE23C9F0B9
:10037000222339F0233001F1A8F4213019F1223081
:1003800029F1F0E0EE0FFF1FE859FF4FA591B4915E
:100390008FB7F894EC91611126C030953E233C93C1
:1003A0008FBF08952730A9F02830C9F0243049F7CD
:1003B000809180008F7D03C0809180008F77809333
:1003C0008000DFCF84B58F7784BDDBCF84B58F7D90
:1003D000FBCF8091B0008F778093B000D2CF809117
:1003E000B0008F7DF9CF3E2BDACF3FB7F8948091E4
:1003F000EE019091EF01A091F001B091F10126B5CD
:10040000A89B05C02F3F19F00196A11DB11D3FBF4C
:10041000BA2FA92F982F8827BC01CD01620F711D1B
:10042000811D911D42E0660F771F881F991F4A9515
:10043000D1F70895AF92BF92CF92DF92EF92FF92E1
:100440000F931F93CF93DF936C017B018B01040FFC
:10045000151FEB015E01AE18BF08C017D10759F098
:100460006991D601ED91FC910190F081E02DC601DA
:100470000995892B79F7C501DF91CF911F910F91D4
:10048000FF90EF90DF90CF90BF90AF900895FC0168
:10049000538D448D252F30E0842F90E0821B930BE9
:1004A000541710F0CF96089501970895FC01918D8F
:1004B000828D981761F0A28DAE0FBF2FB11D5D9692
:1004C0008C91928D9F5F9F73928F90E008958FEF34
:1004D0009FEF0895FC01918D828D981731F0828DE8
:1004E000E80FF11D858D90E008958FEF9FEF08953F
:1004F000FC01918D228D892F90E0805C9F4F821BA3
:1005000091098F739927089588EF91E00E947802EE
:1005100021E0892B09F420E0822F089580E090E00B
:10052000892B29F00E94840281110C940000089507
:10053000FC01A48DA80FB92FB11DA35ABF4F2C9158
:10054000848D90E001968F739927848FA689B7894F
:100550002C93A089B1898C91837080648C93938D46
:10056000848D981306C00288F389E02D80818F7DE9
:1005700080830895EF92FF920F931F93CF93DF93A1
:10058000EC0181E0888F9B8D8C8D98131AC0E889CF
:10059000F989808185FF15C09FB7F894EE89FF899E
:1005A0006083E889F98980818370806480839FBF3C
:1005B00081E090E0DF91CF911F910F91FF90EF903C
:1005C0000895F62E0B8D10E00F5F1F4F0F7311274C
:1005D000E02E8C8D8E110CC00FB607FCFACFE88987
:1005E000F989808185FFF5CFCE010E949802F1CF75
:1005F000EB8DEC0FFD2FF11DE35AFF4FF0829FB7FB
:10060000F8940B8FEA89FB8980818062CFCFCF93EA
:10061000DF93EC01888D8823B9F0AA89BB89E8892A
:10062000F9898C9185FD03C0808186FD0DC00FB6D0
:1006300007FCF7CF8C9185FFF2CF808185FFEDCF4E
:10064000CE010E949802E9CFDF91CF910895FC017D
:1006500001900020E9F73197AF01481B590BBC010D
:1006600088EF91E00C941A028F929F92AF92BF9202
:100670000F931F93CF93DF93CDB7DEB7A1970FB63C
:10068000F894DEBF0FBECDBF19A2423008F44AE095
:100690008E010F5D1F4F842E912CB12CA12CA50132
:1006A00094010E94EC09E62FB901CA01EA30F4F482
:1006B000E05DD801EE938D01232B242B252B79F7B8
:1006C00090E080E0109719F0CD010E942703A196D9
:1006D0000FB6F894DEBF0FBECDBFDF91CF911F9153
:1006E0000F91BF90AF909F908F900895E95CE1CFFC
:1006F000CF93DF930E942703EC0182E191E00E94F7
:1007000027038C0F9D1FDF91CF9108951F920F92A9
:100710000FB60F9211242F933F938F939F93AF9314
:10072000BF938091EA019091EB01A091EC01B0910F
:10073000ED013091E90123E0230F2D3758F50196A3
:10074000A11DB11D2093E9018093EA019093EB0173
:10075000A093EC01B093ED018091EE019091EF0137
:10076000A091F001B091F1010196A11DB11D8093FE
:10077000EE019093EF01A093F001B093F101BF91CE
:10078000AF919F918F913F912F910F900FBE0F903E
:100790001F90189526E8230F0296A11DB11DD2CFF8
:1007A0001F920F920FB60F9211242F933F934F93E6
:1007B0005F936F937F938F939F93AF93BF93EF93C9
:1007C000FF9388EF91E00E949802FF91EF91BF9113
:1007D000AF919F918F917F916F915F914F913F91D9
:1007E0002F910F900FBE0F901F9018951F920F9290
:1007F0000FB60F9211242F938F939F93EF93FF9334
:10080000E0910802F09109028081E0910E02F091DE
:100810000F0282FD1BC09081809111028F5F8F7348
:1008200020911202821741F0E0911102F0E0E850AD
:10083000FE4F958F80931102FF91EF919F918F91C1
:100840002F910F900FBE0F901F9018958081F4CFBD
:100850001F920F920FB60F9211242F933F934F9335
:100860005F936F937F938F939F93AF93BF93EF9318
:10087000FF93E0919702F091980290818091990204
:10088000982320919A0230919B022F3F320731F03A
:100890002F5F3F4F30939B0220939A0280919502E5
:1008A000811135C0911116C020919A0230919B029E
:1008B0002536310558F010929C0230939F02209308
:1008C0009E0281E080939D028093950210929B028C
:1008D00010929A028091A303813041F48091A20387
:1008E000911161C061E0811161C0299AFF91EF917E
:1008F000BF91AF919F918F917F916F915F914F9138
:100900003F912F910F900FBE0F901F9018958091DF
:1009100095028130A1F49923E9F2E0919D028E0FB6
:1009200080939D02F0E0EE0FFF1FEB56FD4F2091EC
:100930009A0230919B023287218782E0C5CF809155
:100940009502823039F5911119C0E0919D0281E044
:10095000E03720F080939C0283E0B6CF8E0F809327
:100960009D02F0E0EE0FFF1FEB56FD4F20919A0223
:1009700030919B023287218781E0A6CF20919A0295
:1009800030919B022536310508F4A4CF83E0809393
:100990009502A0CF80919502833009F09BCF9923D7
:1009A00009F494CF97CF882321F060E00E94A90139
:1009B0009DCF29989BCFCF93DF93E8EFF1E013828F
:1009C000128288EE93E0A0E0B0E084839583A68352
:1009D000B78384E091E09183808385EC90E09587F4
:1009E000848784EC90E09787868780EC90E0918BF9
:1009F000808B81EC90E0938B828B82EC90E0958BE6
:100A0000848B86EC90E0978B868B118E128E138EE2
:100A1000148EC5E9D2E0D093BC03C093BB0380E041
:100A20000E9487001092A203D0939603C09395036F
:100A300082E0DF91CF910C948700789484B5826036
:100A400084BD84B5816084BD85B5826085BD85B572
:100A5000816085BD80916E00816080936E001092F0
:100A6000810080918100826080938100809181006B
:100A700081608093810080918000816080938000FC
:100A80008091B10084608093B1008091B00081605A
:100A90008093B00080917A00846080937A00809186
:100AA0007A00826080937A0080917A0081608093DE
:100AB0007A0080917A00806880937A001092C10059
:100AC000E0910802F091090282E08083E091040243
:100AD000F09105021082E0910602F09107029FEC6E
:100AE000908310921002E0910C02F0910D0296E0BA
:100AF0009083E0910A02F0910B02908190619083C3
:100B0000E0910A02F0910B02908198609083E0914D
:100B10000A02F0910B02908190689083E0910A02A2
:100B2000F0910B0290819F7D90838093B000809321
:100B3000B10084E68093B3008093B4001092B200B9
:100B400080919502833011F41092950284E0809395
:100B50007000B2E12B2E312CCC24CA94DC2C76010F
:100B600085E191E00E94780380919502833009F03D
:100B7000B2C18091D801811107C08FE191E00E943C
:100B8000780381E08093D8018EE992E09093E601AA
:100B90008093E50120919D022093E70180919C02C2
:100BA000882321F010929C0210929D0280919C0259
:100BB0008093E8011092DD011092DE011092DF01B6
:100BC0001092E00180E8809388038091A0029091C8
:100BD000A102865891098C35910588F4243071F56D
:100BE0008091A2029091A3028197489740F480914E
:100BF000A4029091A5020897089708F459C0809123
:100C0000E7018A3108F489C0E091E501F091E6013D
:100C1000208131812A30310508F05EC01092E10157
:100C2000C092DD01D092DE01E092DF01F092E0019E
:100C300081E08093880385E190E049C02434F9F68F
:100C40008091A2029091A302825491098F97B8F6E5
:100C500020E332E040E956E060E372E080E20E9487
:100C60002A01882361F2E091E501F091E601EA575B
:100C7000FF4F808191810897089708F6809189033A
:100C800090918A03A0918B03B0918C038093DD0136
:100C90009093DE01A093DF01B093E00180E28093A6
:100CA000E10187E090E09093DA018093D9010FC0D1
:100CB0001092E101C092DD01D092DE01E092DF01ED
:100CC000F092E00181E88093880387E090E09093C0
:100CD0007F0380937E03CFC0228133812452310968
:100CE0002A313105D0F443E050E060E0412C512C32
:100CF000320190E04817590708F055C0248135812A
:100D0000285031092830310540F4268137812231BD
:100D1000310598F120323105D8F181E08093F70157
:100D200089E793E09093F5018093F4011092F60126
:100D30000E94A400813009F0FFC0412C512C3201E7
:100D4000C0E0E0919503F091960390858091F701C2
:100D5000891708F03FC00E94A400D82F0E94A40069
:100D6000D1112EC0813009F0E7C0440C551C661C1F
:100D7000771C689440F8CF5FE4CF2930310568F2E2
:100D80002131310550F6440C551C661C771C06C0F9
:100D9000440C551C661C771C689440F86F5F4E5FCE
:100DA0005F4F3496A7CF6093E1014092DD015092EE
:100DB000DE016092DF017092E00185E190E073CF87
:100DC000D13009F0B9C08111B7C0440C551C661C64
:100DD000771CD1CF8C2F90E090938703809386036C
:100DE0004092890350928A0360928B0370928C0325
:100DF000842D8F7390E090938303809382039201FC
:100E000046E0369527954A95E1F72F7133273093C1
:100E1000810320938003920122273071232B31F428
:100E2000805C9F4F909383038093820380E853FC00
:100E300088E88093880380E190E090937F0380931B
:100E40007E0381859285843C994028F480918803B3
:100E5000816080938803C093E1014092DD0150924C
:100E6000DE016092DF017092E00180E190E09093FA
:100E7000DA018093D9018BEB91E00E942703609106
:100E8000DD017091DE018091DF019091E00140E190
:100E90000E94340382E191E00E94270389EC91E0F3
:100EA0000E9427036091DD017091DE018091DF01D6
:100EB0009091E0014AE00E94340382E191E00E94B7
:100EC000270384E191E00E947803809195028330AA
:100ED00011F4109295020E94F5014B015C0188EC1F
:100EE000482E512C612C712C0E94F501681979094A
:100EF0008A099B09683E734081059105A8F391E03A
:100F0000491A51086108710828EE820E23E0921EEA
:100F1000A11CB11C411451046104710429F780E043
:100F200090E0892B09F41CCE0E948402882309F4E6
:100F300017CE0E94000014CEE0919503F091960325
:100F40008385948588974D9708F046C0858596855A
:100F50000C970B9708F040C083E08093F7018CEB6F
:100F600091E09093F5018093F4011092F6010E94B4
:100F7000A400813089F50E94A40081112DC0412C6C
:100F8000512C3201C0E0E0919503F09196039085D9
:100F90008091F701891708F06EC00E94A400182FF5
:100FA000C330B1F00E94A400D82FC33021F40E94B6
:100FB000A400D81311C0113009F053C0D1110CC0D6
:100FC000440C551C661C771C689440F8CF5FDBCF3F
:100FD0000E94A400181731F38091E7018C3309F0C7
:100FE0009DC0E091E501F091E601828193818658F0
:100FF00091098D35910508F091C084819581CE9736
:101000008C9708F08BC026E232E04CE256E064EFA9
:1010100071E08CE10E942A01882309F47FC0E091ED
:10102000E501F091E601EA58FF4F80819181079731
:10103000089708F073C08091890390918A03A0916A
:101040008B03B0918C038093DD019093DE01A0931C
:10105000DF01B093E0018CE18093E10185E090E055
:1010600022CE1111B9CFD13009F0B6CF440C551CA6
:10107000661C771CABCF8C2F90E0909387038093F6
:1010800086034092890350928A0360928B03709288
:101090008C03242D30E0852DC43268F580E88093E0
:1010A00088033093830320938203852D90E09093EF
:1010B00081038093800360FE03C088E880938803E7
:1010C0008185928583379A4028F4809188038160D6
:1010D0008093880381E190E090937F0380937E0367
:1010E000C093E1014092DD015092DE016092DF0188
:1010F0007092E001BCCE90E89093880357FE03C045
:1011000098E89093880330938303209382038F772A
:1011100090E09093810380938003D2CF4091E701C8
:10112000E091E501F091E60182819381423289F4F8
:101130009C01285031092730310558F4DF01AE5B9E
:10114000BF4F2D913C91285031092730310508F4CB
:101150005AC08D5791098735910508F464C0E09114
:10116000E501F091E60182819381835491098F9783
:1011700080F48091E701843009F08CC084819581EE
:101180008197489730F4868197810897089708F4EB
:10119000AFC0E0919503F09196038085823209F00B
:1011A000B9C0E091E501F091E60182819381049755
:1011B000059708F0AFC0848195810B970A9708F0D6
:1011C000A9C02CE033E04CE157E064E071E08FE02F
:1011D0000E942A01882309F49DC08091890390917F
:1011E0008A03A0918B03B0918C038093DD019093CF
:1011F000DE01A093DF01B093E0018FE08093E10175
:1012000083E090E050CD1092E101C092DD01D092D8
:10121000DE01E092DF01F092E00181E0809388033B
:1012200084E090E054CD443208F499CF84819581D4
:10123000CE978C9708F093CF2EE032E04AE256E04A
:101240006EE072E080E10E942A01882309F487CFD2
:10125000E091E501F091E601EA5BFF4F8081918129
:101260000897079708F07BCF8091890390918A03B4
:10127000A0918B03B0918C038093DD019093DE01EC
:10128000A093DF01B093E00180E18093E10184E06D
:1012900090E009CD843408F47CCF84819581825418
:1012A00091098F9708F075CF20E332E040E956E0CE
:1012B00060E372E080E20E942A01882309F469CF8A
:1012C0008091890390918A03A0918B03B0918C0344
:1012D0008093DD019093DE01A093DF01B093E001E4
:1012E00080E28093E1013092DA012092D9010DC0B1
:1012F0001092E101C092DD01D092DE01E092DF01A7
:10130000F092E00181E08093880330927F03209285
:101310007E03B1CDD091E701D63008F4D6CDE0916F
:10132000E501F091E601329625EC3DE94CE151E80A
:10133000C3E01AE08481958161917191189F5001F9
:10134000199FB00C1124DB0103E0AA0FBB1F0A9503
:10135000E1F700E0AA16BB0678F0169FD001179FB0
:10136000B00D112463E0880F991F6A95E1F702E040
:10137000A817B90708F001E063E971E080E091E0A7
:101380000E94DC099B01AC012027CF5FDC13D2CF88
:101390002093DD013093DE014093DF015093E001A3
:1013A00080E28093E1011092DA011092D90110924B
:1013B0007F0310927E035FCDDB018F939F930E948A
:1013C0000E0ABF91AF91A29F800D911DA39F900D1A
:1013D000B29F900D11240895A1E21A2EAA1BBB1BE7
:1013E000FD010DC0AA1FBB1FEE1FFF1FA217B307F1
:1013F000E407F50720F0A21BB30BE40BF50B661F07
:10140000771F881F991F1A9469F7609570958095CA
:1014100090959B01AC01BD01CF0108950E94190A6E
:10142000A59F900DB49F900DA49F800D911D112438
:101430000895A29FB001B39FC001A39F700D811DAD
:101440001124911DB29F700D811D1124911D0895CD
:10145000AA1BBB1B51E107C0AA1FBB1FA617B707DA
:1014600010F0A61BB70B881F991F5A95A9F78095F6
:101470009095BC01CD010895EE0FFF1F0590F491EA
:08148000E02D0994F894FFCF60
:1014880000000000BA021A02470207037802560257
:101498006A020D0A004573706572616E646F0054CC
:1014A80068652066756E6374696F6E206465636F26
:1014B80064652826726573756C74732929206973AD
:1014C800206465707265636174656420616E642070
:1014D8006D6179206E6F7420776F726B2061732055
:1014E800657870656374656421204A757374207526
:1014F8007365206465636F6465282920776974685B
:101508006F7574206120706172616D6574657220F9
:10151800616E6420497252656365697665722E64EE
:1015280065636F6465644952446174612E3C666901
:10153800656C646E616D653E202E0043C3B36469BB
:10154800676F204845583A200043C3B36469676F02
:08155800204445433A20000045
:00000001FF
